S00C000076302E312E7372656313
S11300000C943E000C9453000C9453000C94530035
S11300100C9453000C9453000C9453000C946D00F6
S11300200C9453000C9453000C9453000C94530000
S11300300C9453000C9453000C9453000C945300F0
S11300400C9453000C9453000C9453000C945300E0
S11300500C9453000C9453000C9453000C945300D0
S11300600C9453000C9453000C9453000C945300C0
S11300700C9453000C9453000C94530011241FBE91
S1130080CFEFD8E0DEBFCDBF11E0A0E0B1E0E6EEF7
S1130090F2E002C005900D92A430B107D9F70E9496
S11300A0AE000C9471010C94000053985B9A549820
S11300B05C9A55985D9A56985E9A57985F9AE8E6C6
S11300C0F0E0808188608083E3E7F0E08081886FDE
S11300D080838FEF84B915B808951F920F920FB6DD
S11300E00F9211242F933F934F935F936F937F93BA
S11300F08F939F93AF93BF93EF93FF9389B1803214
S113010081F028F4883099F0803171F013C0803484
S113011029F0803879F481E085B90FC082E085B98F
S11301200CC084E085B909C088E085B906C080E1C7
S113013085B903C00E94FE0085B9FF91EF91BF917C
S1130140AF919F918F917F916F915F914F913F916B
S11301502F910F900FBE0F901F9018950E9455007D
S11301607894FFCF8F929F92AF92BF92CF92DF92FB
S1130170EF92FF92CF93DF93EC01688179818A81BA
S11301809B81611571058105910521F464E279ED86
S11301908BE597E02DE133EF41E050E00E940E0142
S11301A049015A019B01AC01A7EAB1E40E942D0167
S11301B06B017C01ACEEB4EFA50194010E943B01FC
S11301C0DC01CB018C0D9D1DAE1DBF1DB7FF03C00F
S11301D00197A109B04888839983AA83BB839F7739
S11301E0DF91CF91FF90EF90DF90CF90BF90AF90D1
S11301F09F908F9008950E94B200089580E091E04E
S11302000E94B2000895A0E0B0E0809300019093B2
S11302100101A0930201B09303010895052E97FBF9
S11302201EF400940E94250157FD07D00E9440014E
S113023007FC03D04EF40C9425015095409530955D
S113024021953F4F4F4F5F4F08959095809570953E
S113025061957F4F8F4F9F4F08950E946201A59F24
S1130260900DB49F900DA49F800D911D11240895AD
S1130270B7FF0C942D010E942D01821B930B08954E
S1130280A1E21A2EAA1BBB1BFD010DC0AA1FBB1F96
S1130290EE1FFF1FA217B307E407F50720F0A21B08
S11302A0B30BE40BF50B661F771F881F991F1A9475
S11302B069F760957095809590959B01AC01BD019F
S11302C0CF010895A29FB001B39FC001A39F700DF9
S11302D0811D1124911DB29F700D811D1124911D4A
S10902E00895F894FFCF1D
S10702E6010000000F
S9030000FC
